:020000040800F2
:10000000E83D00200D02000887270008E9250008C8
:100010008327000851200008453400080000000034
:100020000000000000000000000000001F020008A7
:10003000412400080000000023020008612E00088F
:1000400027020008270200082702000827020008EC
:1000500027020008270200082702000827020008DC
:1000600027020008270200082702000827020008CC
:1000700027020008270200082702000827020008BC
:1000800027020008270200082702000827020008AC
:10009000270200082702000827020008270200089C
:1000A000270200082702000827020008270200088C
:1000B0004D2F000827020008270200082702000829
:1000C000270200082702000827020008270200086C
:1000D00027020008E1300008270200082702000874
:1000E000270200082702000827020008270200084C
:1000F000270200082702000827020008270200083C
:10010000270200082702000827020008270200082B
:10011000270200082702000827020008270200081B
:10012000270200082702000827020008270200080B
:1001300000F002F800F05BF80AA090E8000C82449E
:100140008344AAF10107DA4501D100F050F8AFF27B
:10015000090EBAE80F0013F0010F18BFFB1A43F0A5
:1001600001031847686F0000886F0000103A24BF31
:1001700078C878C1FAD8520724BF30C830C144BF0C
:1001800004680C607047000000230024002500264E
:10019000103A28BF78C1FBD8520728BF30C148BFEA
:1001A0000B607047662906F07383642900F0908025
:1001B000732900F0CB86002070471FB59DE803002F
:1001C00001F06AF801F04CF804000020002106F06C
:1001D00037FA401C60600020002106F01BFAE06046
:1001E00001F0E2F91FBD10B501F047FA10BD01F0B2
:1001F00077FA1146FFF7E1FF05F0A8FA01F0D2FA0D
:1002000003B4FFF7F0FF03BC03F096FA09488047F8
:1002100009480047FEE7FEE7FEE7FEE7FEE7FEE7E8
:10022000FEE7FEE7FEE7FEE704480549054A064B00
:1002300070470000ED2E000831010008E83300206F
:10024000E83D0020E8350020E83500207047000038
:100250000FB4044910B503AA029800F07BFE10BC4D
:100260005DF814FBE03200200FB4014610B504AA7B
:10027000039800F06FFE10BC5DF814FB70B50C46DF
:100280000546012A05D02878800600D5EA690023B2
:1002900002E0012305E05B1C934202D2E05C0028EF
:1002A000F9D1A869E618C01AA861286A184428621A
:1002B0002846AFF3008004E0D5E9012114F8010BD2
:1002C0009047B442F8D32846AFF3008070BD0000D9
:1002D0002DE9F0410646002410687529314616A51F
:1002E00010D0AFF30080002802DA404213A507E0E7
:1002F00031688A0701D512A502E0490704D511A586
:10030000012401E0AFF3008000210A2206F1240756
:1003100009E0B0FBF2FCB0FBF2F302FB1C00303052
:1003200078541846491C0028F3D123462A46304603
:10033000BDE8F04100F079BB000000002D00000096
:100340002B000000200000002DE9F05F89460446E4
:100350004FF0000ADFF824B1FB44C0F820A020468B
:10036000E168884700287DD0252806D0D4E90121FE
:100370009047206A401C2062F1E700255F46204636
:10038000E16888472028064607DB312E05D2B819D8
:1003900010F8200C08B10543F1E7A80701D525F0B6
:1003A0000405C4F81CA00027C4F818A02A2E09D000
:1003B000304603F0AFF938B304EB8708303EC8F895
:1003C000186019E059F8041B204604EB870291617C
:1003D000E1688847012F064618D1E069002820DA35
:1003E00025F020051DE0D8F8180000EB800006EB92
:1003F00040003038C8F818002046E16888470646B3
:1004000003F088F90028EED1012F0AD02E2E08D152
:100410002046E16888477F1C0646022F45F02005EC
:10042000C4DBA069002803DA404245F00105A06161
:10043000E80701D025F01005A6B1A6F14100192862
:1004400002D8203645F400654A46314620462560EC
:100450004D46FFF7A7FE60B1012807D0ED1D25F03E
:10046000070000E007E000F1080978E705F104095A
:1004700075E730467AE7206ABDE8F09F906A000091
:10048000007B00F08000704770B50D46044604E024
:10049000294604F0F1FC401C04D014F8010B00289C
:1004A000F6D170BD4FF0FF3070BD00002DE9F04176
:1004B000044616460D464769007B80072ED0384615
:1004C00003F047F950BB3EB3012E02D0022E25D1D6
:1004D00004E0204600F066F805441DE0384603F0CD
:1004E0002DF9E168002841F01001E16005DA2046AD
:1004F00000F02EFE0120BDE8F081C9030BD5626833
:10050000E16A914200D81146A26911442269891A10
:10051000814200DD08460544002D01DA0220EAE7A9
:10052000E16A6068E268814206D29103E06203D525
:1005300022F4003141F01002A6690027AE4213DC1C
:10054000E16A814201D90B4600E0034603EB060C49
:100550002369ACEB030CAC4506DD814201D98C4626
:1005600000E084469C4505D1A760276042F020004A
:10057000A5620DE0AD1BE669AE1B8142A66000D905
:100580000846C01A281A20605819606022F020001E
:1005900003490840E060002084F84870ABE70000A1
:1005A000BFCFD7FF10B50146C268900703D09006B1
:1005B00007D5886A0AE000F0D1F901210160881EA0
:1005C00010BD8B69486818440B69C01A91F848300F
:1005D0001BB191F84910401A10BD1103FCD5002839
:1005E000FADD401E10BD00002DE9F0410C46074623
:1005F0001646104600F06EF82078611C61280AD07B
:10060000722802D077283CD102E00125002405E0C1
:100610000225042402E0082448F2020511F8010B27
:100620002B2806D0622809D011F8010C74280AD0B2
:100630000BE045F0030544F00204EFE745F0040544
:1006400044F00104EAE744F010043846214603F080
:1006500089F8411C15D00021316171604FF400719F
:10066000F560F1617061200704D530460222002157
:10067000FFF71CFF306D40F0010030653046BDE8EB
:10068000F0810020FBE72DE9F0410D460646104CB5
:10069000206DC10704D0410804D020F00104F7E721
:1006A00022460EE0542000F05DF907000ED0206DC8
:1006B00047F00101084354212065384600F0E2F874
:1006C0003A4629463046BDE8F0418DE70020D6E79E
:1006D0008C3200202DE9F04704464FF000094FF01E
:1006E000FF37C568D4E90486A80707D0204600F084
:1006F00063FD304603F015F8002802DA3846BDE8FD
:10070000F087280502D5404600F05BF94C212046D1
:1007100000F0B8F8206D20F0010020654846EEE7B3
:100720002DE9F041054690460E460020044600E0C3
:10073000641C44450BD2285D00F06AF90746305D21
:1007400000F066F9381A02D1295D0029F0D1BDE820
:10075000F081032A40F2308010F0030C00F0158085
:1007600011F8013BBCF1020F624498BF11F801CBB4
:1007700000F8013B38BF11F8013BA2F1040298BF19
:1007800000F801CB38BF00F8013B11F0030300F083
:100790002580083AC0F0088051F8043B083A51F827
:1007A00004CBA0E80810F5E7121D5CBF51F8043B2C
:1007B00040F8043BAFF30080D20724BF11F8013B9F
:1007C00011F801CB48BF11F8012B24BF00F8013B01
:1007D00000F801CB48BF00F8012B704710B5203A54
:1007E000C0F00B80B1E81850203AA0E81850B1E8EA
:1007F0001850A0E81850BFF4F5AF5FEA027C24BFA0
:10080000B1E81850A0E8185044BF18C918C0BDE896
:1008100010405FEA827C24BF51F8043B40F8043B5F
:1008200008BF7047D20728BF31F8023B48BF11F814
:10083000012B28BF20F8023B48BF00F8012B70476E
:100840004FF000020429C0F0128010F0030C00F0F9
:100850001B80CCF1040CBCF1020F18BF00F8012B77
:10086000A8BF20F8022BA1EB0C0100F00DB85FEA45
:10087000C17C24BF00F8012B00F8012B48BF00F811
:10088000012B70474FF0000200B513469446964680
:10089000203922BFA0E80C50A0E80C50B1F1200193
:1008A000BFF4F7AF090728BFA0E80C5048BF0CC041
:1008B0005DF804EB890028BF40F8042B08BF70479F
:1008C00048BF20F8022B11F0804F18BF00F8012B11
:1008D000704700004FF0013C50F8042B51F8043BE6
:1008E0009A4221D1A2EB0C03934313EACC1317D104
:1008F00050F8042B51F8043B9A4215D1A2EB0C039B
:10090000934313EACC130BD150F8042B51F8043B5A
:100910009A4209D1A2EB0C03934313EACC13DBD028
:100920004FF00000704700BFD01A01BAB1FA81F150
:1009300001F0180122FA01F0CB40C1F12001DBB235
:10094000C0B2C01A2CFA01F3D11A914311EAC311B3
:10095000E6D1704770477047704700000048704705
:100960008833002070B5064600F076FC056806F175
:100970000B0020F00704B4429CBF002070BD2B4642
:100980006A68BAB11068A04210D304F10801884225
:100990003CBF5068586007D3516810194160116816
:1009A000091B016058601460101D70BD1346526829
:1009B000002AE7D12146284600F05AFC0028DED163
:1009C00070BD70B50446051F00F046FC0068002CA1
:1009D00014BF446870BD002C18BFAC423CBF204619
:1009E0006468F8D301680A18AA4218BF456003D1A9
:1009F0002A6805461144016028684119A1421CBFBC
:100A00006C6070BD6168696021680844286070BDD1
:100A100010B5044600F018FC0068005DC00602D561
:100A200004F1200010BD204610BD2DE9F0470D4611
:100A300099469246044600F124080168880604D5C8
:100A4000E06921F01001216000E00120A84201DDF1
:100A5000471B00E00027A1697A1902EB0900081A78
:100A6000A0612078C00602D42046AFF300800026A3
:100A700008E0D4E901211AF806009047206A401CDA
:100A8000761C20624E45F4DB2078C0060AD520464D
:100A9000AFF3008006E0D4E9012130209047206ABE
:100AA000401C2062381EA7F10107F4DC07E0D4E9FE
:100AB000012118F805009047206A401C2062281E7A
:100AC000A5F10105F3DC2046AFF300802078000695
:100AD00002D50220BDE8F0870120FBE770472DE931
:100AE000FF4F0C461E464FF0FF378BB0D2E9000196
:100AF000DDF860800A908A46C1F30A5505B93D4683
:100B0000002108464FF00000BAF1000F00F4400049
:100B100005DA00EB80004FF4400101EA50004FEA93
:100B20009059B9F1010F00DDB9460A9850EA4A0020
:100B30000ED044F61050A5F2FF3545432F14B8F1FE
:100B4000000F1ED07542291E1EDDC9F100021CE0F7
:100B5000B8F1010F4FF0000001D0302103E0F24363
:100B600005E02154401CB042FBDB3046002200214E
:100B700021540B99C1F80880C1E900200FB0BDE8ED
:100B8000F08FBD1B6D1CDEE74A4600DA694206A8FD
:100B900000F03EFC06AB93E8070003AB83E80700D8
:100BA00050460A9900F075FE8DE80700A0F5005048
:100BB0001F3800900398002D09DD42F21F014A46BC
:100BC000084403A90390684601F0D4F808E0A0F5B2
:100BD00000504A461F3803A90390684601F0DEF82A
:100BE0008DE807000004000C03D04FF0FF304108EF
:100BF00000E01046B8F1000F03D000220092154625
:100C00001EE0751E05D400F07DFB303262556D1E6E
:100C1000F9D5B3460122084302D000227F1C04E02C
:100C20002078302801D100227F1E002A099786D023
:100C30001DE0112D07DA00F065FB303262556D1CA6
:100C400050EA0102F5D1084302D00098C8B10EE085
:100C50000021681E05E0235C625C63542254401E40
:100C6000491C8142F7DBAB46A81B401E09900020BF
:100C700004F80B000B98099AC0F80880C0E9002B13
:100C80007CE711264FF0000859E72DE9F04F884620
:100C90000446D21D22F0070191B0D1E90001CDE94F
:100CA0000A0102F01BFC02460B98C00F01D02D2058
:100CB00007E02068810701D52B2002E0202101EA0E
:100CC000C000032A099001D0072A05DB03464146EC
:100CD000204600F05DFB0BE12078800601D5E0693D
:100CE00000E00620B8F1650F814606D0B8F1660F26
:100CF00018D0B8F1670F70D131E00020B9F1110FB1
:100D0000009001DB112301E009F101030AAA01A906
:100D10000CA8FFF7E4FEDDE90C70002609F10105DF
:100D2000834647E001204B4600904FF000470AAA57
:100D300001A90CA8FFF7D3FEDDE90DB00C995D46C3
:100D4000002610B909F101000D18B9EB050003D414
:100D5000C0F1FF3609F10105A5EB09002BE0B9F15F
:100D6000010F01DA4FF001090020B9F1110F0090D5
:100D7000484601DD112300E003460AAA01A90CA898
:100D8000FFF7ADFEDDE90C704D4600268346207866
:100D900000070AD4AB4500DA5D4601A8012D04DD49
:100DA000411911F8011C302907D04F4502DA17F11B
:100DB000040F04DA012082460FE06D1EEEE7002FDB
:100DC00002DCED1B3E4403E0781CA84200DD7D1CE4
:100DD000B81B00F1010A4FF000472078000703D448
:100DE000AA4501DB4FF0FF3A0021B7F1004F0DF1AA
:100DF00043088DF8431024D002202B23002F01DA62
:100E00007F422D230A21021EA0F1010000DC5FB108
:100E100097FBF1FC97FBF1F201FB1C7C17460CF1F0
:100E2000300C08F801CDEEE7A8F10100037021882D
:100E3000090501D5452100E06521A0F1010800F870
:100E4000011C09980FA9A1EB0807FF1D00B10120A3
:100E5000411901EBEA70A1693844081A401EA061EB
:100E60002078C00602D42046AFF30080099828B14C
:100E7000D4E901219047206A401C20622078C006F6
:100E800022D52046AFF300801EE0002E04DBB345E0
:100E900002DD01A8805D00E03020D4E90121904707
:100EA000206A401C2062761CAAF101005FEA000A59
:100EB0000AD100F0D5F9C0680168405CD4E901218D
:100EC0009047206A401C2062281EA5F10105DCDC49
:100ED00007E0D4E9012118F8010B9047206A401C73
:100EE0002062381EA7F10107F3DC2046AFF3008033
:100EF000032011B043E6000001694A1C0261087832
:100F0000704700B58FB0CDE9013100210591054949
:100F10007944CDE9031011466846FFF715FA0FB082
:100F200000BD0000E5FFFFFF10B5436913B1AFF34B
:100F3000008001E0FFF7A2F9012010BD127800F156
:100F400024010A7000224A700122EDE711684FF077
:100F5000FF32E9E7074B70B50D467B44FFF7D1FF41
:100F600004462846FFF78CFA10B14FF0FF3070BDF1
:100F7000204670BD1B3F00002DE9F04705460C469A
:100F8000C86820F4201040F48000C860800602D5B4
:100F9000084600F034F9E06841F282014FF0FF3971
:100FA0000140022903D0204600F0D2F8B5E000F459
:100FB0002041B1F5004F0FD1C00306D56168E06A4A
:100FC000884200D80846606006E02069E062606000
:100FD000606902F0B3FBA061A0680022EEB20028B5
:100FE0000DDAE1688B050AD4C043A06041F490306B
:100FF0002260E0606068411C61600670A5E0E06806
:101000009046226040F40050E060206968BB60694F
:1010100002F09FFB012704F12405A0B1A08910F480
:10102000407F08D0E069FFF79DFC206118B1E068BF
:1010300040F4006016E0E7612561E06820F440704C
:1010400040F480600EE0E069FFF78CFC002820612E
:10105000F1D0E06840F4006010F4407FE06002D11D
:1010600040F48070E06020696060E06825696FF09E
:10107000010AC1051FD56168E06A884200D80846A8
:10108000411B04D02246284600F06CF8F0BBE06813
:10109000010203D5E562C4E9015854E0691CE1622C
:1010A0006160E16940F48030491EC4E902103046B5
:1010B0002E70BDE8F087010202D500F480320AE00C
:1010C0006068411C61600670E0680A2E40F4803060
:1010D000E06006D00022E16A6068814203D90B46D5
:1010E00002E00122F7E70346A7895B1B7F0503D4D3
:1010F000E7699F4200DDE2B1814200D80146E56226
:101100000F1AC4E90158002B09DD00E005E0224672
:101110001946284600F026F808B14846C9E747B105
:10112000A069E5626560C01BA061E06840F0100046
:10113000E060E068000208D56168A069E562491BCB
:1011400008446560A0615046B3E73046B1E700004F
:10115000C16821F4001141F08001C160002181606B
:10116000016070472DE9F047814614460E464FF066
:10117000FF383248D5685769054209D03846A16919
:1011800002F01CFB002811DB2C48C0430540E56041
:101190002B4632464946384602F01EFBA16920F034
:1011A0000042B21A11440028A16103D02046FFF783
:1011B000CFFF4046BDE8F08770B504460569C06AB8
:1011C0006168884200D80846E16821F42011E16096
:1011D000C90312D5A84208D02246411B2846FFF772
:1011E000C1FF10B14FF0FF3070BD0020E562C4E9CF
:1011F0000150E06820F48030E060002070BD10B540
:101200000446C06820F02000E060A16AA06988421E
:101210000DD02046FFF7D0FFE06820F4405040F0AA
:101220001000E060A06AA0612069E062606044F2A2
:101230004001E0688843E06010BD0000100002003B
:10124000004870478833002010B500F009F8001DF1
:1012500010BD00BFED5300000048704790330020E0
:1012600000487047A83300207047704770477047A8
:1012700038B504460A4600206946AFF300800028CE
:1012800008BF38BD02460099204600F04EFA012002
:1012900038BD012000F096BAF8B5AFF300800546DE
:1012A00000200C46102000BF0646A819A0420DD908
:1012B000324669460020AFF30080070008BF00F007
:1012C00081FA0098A04218BF0546C419FFF7C4FF71
:1012D00005600746F01D20F007004619284600F07B
:1012E0000AF8B44208BFF8BDA21B31463868BDE811
:1012F000F84000F01ABA00210160C0E901107047FF
:101300001020704730B5B0F10A024FEA900E71F12B
:1013100000034EEA817EB0EB0E0061EB91014FEAD3
:10132000101E4EEA017E10EB0E0041EB11114FEA48
:10133000102E4EEA016E10EB0E0041EB11214FEA28
:10134000104E4EEA014E10EB0E0041EB11414018D9
:1013500041F100014FEAD00040EA41704FEAD1016B
:1013600010EB80054FEA810444EA907444EB0104D9
:101370006D1944EB0404521BA3414FF0000348BF16
:101380000A3200D530BD401C41F1000130BD0000E3
:101390002DE9F0411F46044603260168072A01F49F
:1013A000006004DB08B116A505E016A503E008B14E
:1013B00015A500E015A521F010002060A069C01E51
:1013C000A0610FB1401EA0612046AFF300804FB175
:1013D000D4E9012138469047206A401C2062C01C95
:1013E000206206E0206AFAE7D4E9012115F8010B32
:1013F0009047761EF8D22046AFF30080BDE8F0811A
:101400004E414E006E616E00494E4600696E6600A8
:101410002DE9F047814616468AB0334878440DC816
:101420008DE80D0030487844801C03AC0DC884E87A
:101430000D0041F69B300844372190FBF1F290FB00
:10144000F1F5A5F1800501FB12041B3C02D56442B5
:10145000012000E00020DFF890A080460027FA4439
:10146000AAF1BE0A0DE0E00709D03246684607EB54
:1014700047010AEB810100F091FC8DE80700641040
:101480007F1C002CEFD1184F7F44AC3F18E0E807D9
:1014900014D007EB04100DF1180A90E80E008AE84A
:1014A0000E00C068F04201D198190890324606A992
:1014B00003A800F073FC03AB83E807006D10641C05
:1014C000002DE4D132466946B8F1000F03A802D0DE
:1014D00000F050FC01E000F061FCC9E90001C9F82E
:1014E00008200AB0BDE8F0875C5A00002DE9F047FB
:1014F0001C469246804602FB01F511B3A768002006
:101500003DE0002F3DDCE069A8421DDAB9F1000F93
:101510001AD0224629464046FFF724FE08B1A760AC
:101520002AE0E06810F4C06F01D0002008E02269D2
:101530006168891AE269511AC003A16001D4484266
:10154000A0605046BDE8F087A84203DAE06840F4A6
:101550000000E060214698F80000FFF70DFDE1680B
:1015600021F40001E160411C06D0A768002805DBDA
:101570006D1E08F1010813E00020E3E70120814619
:101580000EE0AF423E4600DD2E46414632466068E0
:10159000FFF7DFF86068BF1BAD1B3044B0446060EC
:1015A000002DAEDCA760CCE710B542485421FFF710
:1015B00069F941485421FFF765F940485421FFF784
:1015C00061F93F493B483C4A3F4B08603D490A604E
:1015D0003A491960531C0365481C106501200865D1
:1015E0003B48344A39A17844FEF7FEFF20B9384819
:1015F00078440A3800F0DFF837482F4A35A178449C
:10160000FEF7F2FF20B9344878440A3800F0D3F8E6
:1016100032482A4A2FA17844FEF7E6FF20B92F4826
:1016200078440A3800F0C7F840232248DC00002143
:10163000224600F094F820B125487844543800F050
:10164000BAF81D4822464023002100F088F820B156
:1016500021487844543800F0AEF818482246102348
:10166000002100F07CF8002806D01C487844BDE832
:101670001040563800F09FB810BD104870B5006D8E
:1016800020F001040B48FFF725F80B48FFF722F87C
:101690000A48FFF71FF809E0206D20F001052046F9
:1016A000FFF718F82046FFF78CF92C46002CF3D1F1
:1016B00070BD00008C320020E03200203433002066
:1016C00074000020780000207C00002072000000E0
:1016D000AA520000770000009852000087520000D4
:1016E0007546FFF7ADFDAE4605006946534620F04E
:1016F0000700854618B020B5FEF796FDBDE82040EE
:101700004FF000064FF000074FF000084FF0000BBD
:1017100021F00701AC46ACE8C009ACE8C009ACE870
:10172000C009ACE8C0098D467047034640688C4646
:10173000002818BF88423CBF03464068F8D31868A9
:101740001844884207D00CF1030020F00700001D68
:10175000411A521A0146081D0A60FFF732B970B5E6
:10176000C468A50713D0650211D4B2F5807F09D0F3
:10177000B2F5007F06D0B2F5806F08D1012300F1E9
:10178000240106E05D1E6FF07F46B54201D30120C3
:1017900070BD0161C361416024F470611143C16097
:1017A000002070BD10B50446AFF300802046BDE8B0
:1017B0001040FEF725BD10B500F010F8BDE8104050
:1017C00000F007B810B500F023F8BDE81040AFF303
:1017D0000080002801D001F0AFBF704710B501466E
:1017E00002A000F03DF8012010BD0000534947520F
:1017F000545245443A2052656469726563743A20D4
:1018000063616E2774206F70656E3A2000000000DF
:1018100010B5012805D0002103A000F021F8012017
:1018200010BD09A1F8E7000053494752544D454DFA
:101830003A204F7574206F662068656170206D6571
:101840006D6F7279000000003A2048656170206D6C
:10185000656D6F727920636F727275707465640064
:1018600070B505460C460A2000E06D1C01F0D5FF5E
:1018700035B128780028F8D102E0641C01F0CDFFD2
:1018800014B120780028F8D1BDE870400A2001F09A
:10189000C4BF5FEA400C08BF91F0000F4FEA8C23F1
:1018A0004FEAC12243EA51514FEA1C5018BF00F5DC
:1018B000F0404FEA300018BF41F000415FEA6C5C35
:1018C00000F02980BCF1FF3F08BF40F08040704726
:1018D000130C06BF12044FF0100C4FF0000C130E47
:1018E00004BF12020CF1080C130F04BF12010CF11B
:1018F000040C930F04BF92000CF1020CD30F04BF31
:1019000052000CF1010C11464FF00002A0F11F0033
:10191000A0EB0C00704711F0004F08BF704731F08A
:1019200000413FF4D5AF0B0C06BF09044FF0100C7B
:101930004FF0000C0B0E04BF09020CF1080C0B0F4A
:1019400004BF09010CF1040C8B0F04BF89000CF1DA
:10195000020CCB0F04BF49000CF1010CCCF12003A9
:10196000A0EB0C0022FA03F302FA0CF241EA0301A5
:1019700000F10100704720F07F4C80EA030023F063
:101980007F47ACEB070303F57C5300F0004003F105
:10199000FF032DE980494FEA154B09B44FEA144380
:1019A00025EA0B4E24EA03480FF2042606EB132720
:1019B00049083E785FEA320203FB0667C7F5000775
:1019C00007FB06F64FEA54374FEAD64606F1020601
:1019D00007FB066CCCF1005C4FEA1C472CEA074C75
:1019E00007FB06F40CFB06F504EB15464FEA9616CA
:1019F00034BF00204FF000404FEAD13706FB07FC10
:101A00004FEA1C4C0CFB0BF7D21B03FB0CF761EBF2
:101A100007010CFB0EF7B0EB074072EB17420CFB13
:101A200008F734BFA2EB0742B2EB074261EB174164
:101A30004FEA0C444FEA910706FB07FC4FEA1C4CA7
:101A40000CFB0BF7B0EBC74072EB573203FB0CF704
:101A500034BFA2EBC742B2EBC74261EB57310CFB7C
:101A60000EF7B0EBC70072EB57720CFB08F734BFF0
:101A7000A2EBC702B2EBC70261EB5771039F4FEABB
:101A8000816141EA921104EBCC044FEAD1374FEA6D
:101A9000826206FB07FC42EA90124FEA80604FEA3E
:101AA0001C4C0CFB0BF7D21B03FB0CF761EB070183
:101AB0000CFB0EF7B0EB074072EB17420CFB08F77C
:101AC00034BFA2EB0742B2EB074261EB17414FEA8A
:101AD0008C554FEA910704EB9C2406FB07FC4FEA68
:101AE0001C4C0CFB0BF7B0EBC74072EB573203FBFF
:101AF0000CF734BFA2EBC742B2EBC74261EB5731E0
:101B00000CFB0EF7B0EBC70072EB57720CFB08F73B
:101B100034BFA2EBC702B2EBC70261EB577115EB02
:101B20004C254FEA816141EA92114FEA82624FEA05
:101B3000D13742EA901206FB07FC44F100044FEA59
:101B400080604FEA1C4C0CFB0BF7D21B03FB0CF71D
:101B500061EB07010CFB0EF7B0EB074072EB17428D
:101B60000CFB08F734BFA2EB0742B2EB074261EB74
:101B7000174115EB1C154FEA813141EA92414FEABA
:101B8000823242EA90424FEA80304FEA0C7644F1CA
:101B9000000448EA03434EEA0B484FF0000EB2EB54
:101BA000080C71EB030724BF624639464EEB0E0E5C
:101BB0004FF0000B0018524149414BEB0B0BB2EBBD
:101BC000080C71EB03077BF1000B24BF624639461A
:101BD0004EEB0E0E4FF0000B0018524149414BEBFB
:101BE0000B0BB2EB080C71EB03077BF1000B24BF6E
:101BF000624639464EEB0E0E51EA020718BF46F018
:101C0000010616EB0E7655F1000254F1000103D5E2
:101C1000BDE88901BDE80088BDE88901BDE800484C
:101C2000B619524141EB0101A3F1010370478080D5
:101C30007F7E7D7C7B7A7978777676757473727126
:101C400071706F6E6E6D6C6C6B6A6A6968686766DE
:101C500066656464636362616160605F5F5E5E5D70
:101C60005D5C5C5B5B5A5A595958585757565655E4
:101C700055555454535352525251515050504F4F46
:101C80004F4E4E4D4D4D4C4C4C4B4B4B4A4A4A4996
:101C900049494848484747474746464645454544D9
:101CA0004444444343434342424242414141002B66
:101CB00026D4770021D01CB54FEA370703B44FF084
:101CC00010004FF010014FF000000FBCBDE81040B5
:101CD0000BF1010BBBF1010F08BF5FEA170722BF31
:101CE00012F1010211F101014FF0004143F1000333
:101CF00000F0004043EA00007047F9D35708DAE7E4
:101D000046EA064613F1400F4FEA16461FDD13F16F
:101D1000200FDFBF16430A46002120335B42C8D0A4
:101D2000C3F1200746EA064602FA07F74FEA1646CD
:101D300046EA0706C3F1200722FA03F201FA07F781
:101D400021FA03F14FF0000342EA0702B1E746EA45
:101D5000020646EA06464FEA164646EA0106BCBFB8
:101D600046EA0646360C4FF000034FF000024FF0F3
:101D700000019EE72DE9C048934630B491E8380051
:101D800007C831EA400C48BF34EA430C03D5FFF7DB
:101D9000F2FDFFF78CFFF0BCBDE800882DE9C048DC
:101DA000934630B491E8380007C810F0804F08BF60
:101DB00013F0804F03D100F005F8FFF778FFF0BC77
:101DC000BDE8008820F07F4780EA030023F07F4CC5
:101DD00007EB0C03A3F57C5300F00040A3F1FE03D6
:101DE00092F0000F00F0B38095F0000F00F07780C4
:101DF0002DE901494FEA11404FEA144621EA004813
:101E000000FB06FC24EA064708FB06F607FB08F879
:101E100000FB07F718EB06484CEB164C4FEA124B49
:101E200018EB07484FEA15464CEB174022EA0B4ED9
:101E30000BFB06FC25EA06470EFB06F607FB0EFE2B
:101E40000BFB07F71EEB064E4CEB164C4FF0000653
:101E50001EEB074E4CEB174B18EB0B0840F1000044
:101E600018EB0E0B58EB000840F100008F1A4FF0F2
:101E700000013CBFC943661B14BFB5EB040C002135
:101E80003CBFC943F61B4FEA17444EEA8E0E27EAC1
:101E900004454FEA1C4704FB07622CEA074C05FB8C
:101EA00007F70CFB05F604FB0CFC16EB074642EBB0
:101EB000174216EB0C4642EB1C421BEB060658EB96
:101EC0000202414146EA9E0601D5BDE80189B619E4
:101ED000524141EB0101A3F10103BDE801894FEA41
:101EE00014454FEA114724EA054621EA074C05FB51
:101EF00007F406FB07F70CFB06F105FB0CFC11EBE6
:101F0000074144EB17444FEA124711EB0C4144EBF5
:101F10001C4422EA074C05FB07F206FB07F70CFB03
:101F200006F605FB0CFC16EB074642EB174216EBD8
:101F30000C4642EB1C456A1854F1000148BF70473B
:101F4000B619524141EB0101A3F10103704795F02D
:101F5000000F37D04FEA11424FEA144721EA0246F8
:101F600024EA074C02FB07F106FB07F70CFB06F41B
:101F700002FB0CFC14EB074441EB17414FEA1547F9
:101F800014EB0C4441EB1C4125EA074C02FB07F51E
:101F900006FB07F70CFB06F602FB0CFC16EB0746EC
:101FA00045EB174516EB0C4645EB1C42121951F157
:101FB000000148BF7047B619524141EB0101A3F13E
:101FC000010370474FEA14454FEA114724EA0546DA
:101FD00021EA074C05FB07F106FB07F70CFB06F2AD
:101FE0004FF0000605FB0CFC12EB074241EB1741DA
:101FF00012EB0C4251EB1C4148BF7047921841EB69
:102000000101A3F10103704710B5012000F024FC89
:10201000002000F021FC10BD08B501460020009012
:10202000034800900098084400900098008808BD7C
:10203000006C004008B500220092044A0092009A09
:1020400002440092009A116008BD0000006C00403C
:1020500000BFFEE7014611B1012903D100E000BF36
:10206000012070470020FCE702460C481044401E47
:10207000B0FBF2F1022901D2002100E0891EFF2904
:1020800000D9FF210648406820F0FF0040F440706E
:102090000843034B586001207047000040190100BD
:1020A000008001400146012902D0042910D107E037
:1020B0000848406820F4C050064A5060012070472C
:1020C0000448406840F40060024A50600120F6E78E
:1020D0000020F4E700800140002040F0010070473C
:1020E000F0B504460E4604F03F0444F48065012A2E
:1020F00002D0022A06D102E045F0400502E045F098
:10210000C00500BF00BF2B488660C5605AB900BF3C
:102110002848406B00F400600028F9D12648254F7C
:10212000B8630120F0BD00BF2248416B01F00400FC
:1021300028B1214808401F4FB8630020F2E701F0A2
:10214000010078B11C4808401A4FB863012C03D035
:10215000292C01D00C2C03D10020164FF8600AE086
:102160000020DFE701F040000028DDD012480840E1
:10217000104FB86300BF00BF0E48006900F03F0079
:10218000A04207D00B48006900F03F003F2801D073
:102190000020C7E7074840691860022A08D10548AF
:1021A000806958600348C06998600248006AD86036
:1021B0000120B7E700800140FF07C00008B52520D7
:1021C0008DF8000000208DF8020001208DF803003A
:1021D000684600F0D9FA08BD2DE9F04F99B04422C5
:1021E000504908A8FEF7FAFA18224FA102A8FEF7F4
:1021F000F5FA4FF0020952A002F000FEC5B235B167
:10220000504850F8251050A0FEF722F878E04D48CD
:1022100050F8251052A0FEF71BF85748FEF718F8A3
:1022200056A157A0FEF72FFA0446B4B15948FEF75D
:102230000FF823464322012108A8FFF757F9064665
:10224000432E03D154A0FEF703F802E056A0FDF799
:10225000FFFF2046FEF73EFA02E057A0FDF7F8FF29
:1022600046A15DA0FEF70FFA0446002C25D05F487A
:10227000FDF7EEFF484604F02BFA83465C4904F074
:102280003BFA824604F0F8F909EB89034A46CDE9A6
:10229000000158A12046FDF7E7FF06462046FEF75D
:1022A000EFF818B140A0FDF7D3FF02E03AA0FDF728
:1022B000CFFF2046FEF70EFA02E03FA0FDF7C8FF71
:1022C0002EA14FA0FEF7DFF90446ACB15148FDF74F
:1022D000BFFF214602A8FEF7D7F82046FEF7D0F848
:1022E00018B131A0FDF7B4FF02E02BA0FDF7B0FF5D
:1022F0002046FEF7EFF902E02FA0FDF7A9FF00BF8F
:102300000FA003F07FF8C5B21DB143A0FDF7A0FFF9
:1023100002E046A0FDF79CFF1748FDF799FF19B0B2
:10232000BDE8F08FB46F0008CEE4BABAB0B2B8BB63
:10233000C0B3B5E7D7D3D3D0CFDEB9ABCBBE0D009A
:102340004D303A0000000020B9D2D4D8CEC4BCFE33
:10235000CFB5CDB3CAA7B0DC20282573290D0A005C
:10236000B9D2D4D8CEC4BCFECFB5CDB3B3C9B9A60B
:1023700020282573290D0A00946E000877000000BC
:102380004D303A5C746573745C74657374312E748B
:1023900078740000DC6E0008D0B4C8EBC4DAC8DD85
:1023A000B3C9B9A60D0A0000D0B4C8EBC4DAC8DDC1
:1023B000CAA7B0DC0D0A0000B4F2BFAACEC4BCFEAE
:1023C0004D303A5C746573745C746573742E747804
:1023D00074CAA7B0DC0D0A004D303A5C74657374A2
:1023E0005C74657374322E6373760000246F00088A
:1023F0009A99B14025642025642025660D0A0000C5
:102400004D303A5C746573745C74657374332E7408
:10241000787400006C6F0008D0B6D4D8CEC4BCFE6F
:10242000CFB5CDB3CAA7B0DC0D0A0000D0B6D4D862
:10243000CEC4BCFECFB5CDB3B3C9B9A60D0A00005A
:102440007047C0EBC002510000E0491E0029FCD1DA
:1024500070474FF4FA71002001F0F6FBFFF7BCFE65
:1024600009E0002001F05CFA28B1012001F0B6FB80
:10247000042001F0B3FBF4E710B5134B1B6823F005
:102480000103114C2360114B0F4C08342360231DB2
:10249000196053029B08241F236020B94FF42A536C
:1024A000241F236003E042F69023074C23604FF47F
:1024B0007043054C403C2360034B1B6843F0010311
:1024C000014C236010BD00004404024080800140A4
:1024D0002DE9F041024600250026002000230024BB
:1024E000002791F803C00CF00F0591F803C00CF021
:1024F000100CBCF1000F03D091F802C04CEA0505A6
:1025000091F800C0BCF1000F31D0146800202BE01E
:102510004FF0010C0CFA00F3B1F800C00CEA03060E
:102520009E4220D183004FF00F0C0CFA03F7BC43FE
:1025300005FA03FC4CEA040491F803C0BCF1280F2F
:1025400006D14FF0010C0CFA00FCC2F814C00AE0EE
:1025500091F803C0BCF1480F05D14FF0010C0CFA03
:1025600000FCC2F810C0401C0828D1D31460B1F898
:1025700000C0BCF1FF0F34DD546800202EE000F1F4
:10258000080C4FF0010808FA0CF3B1F800C00CEA8F
:1025900003069E4221D183004FF00F0C0CFA03F783
:1025A000BC4305FA03FC4CEA040491F803C0BCF1F7
:1025B000280F05D100F1080C08FA0CF8C2F81480B5
:1025C00091F803C0BCF1480F07D100F1080C4FF09F
:1025D000010808FA0CF8C2F81080401C0828CED375
:1025E0005460BDE8F081000009A100200CE00A5C05
:1025F000124B1A8000BF114A121F128802F04002CB
:10260000002AF8D0421CD0B22A28F0D300BFFEE73F
:102610000D0A456E74657220486172644661756C7E
:10262000745F48616E646C65722C205379737465B5
:102630006D2048616C742E0D0A00000004380140C2
:102640001648406940F2024108431449486108466F
:10265000806940F0B0008861114840686FF3130052
:102660000F494860084640680E4908430C494860D5
:102670000D48006820F470600B4908600846006847
:1026800040F43060086000200849C860C86208480B
:10269000886303200860012070470000001002409A
:1026A00000100140BBBB0B00001401400080014042
:1026B000FF07C00000B585B00121052000F0BCF87F
:1026C0000121880300F0B8F84FF40070ADF8100055
:1026D00018208DF8130003208DF8120004A9184863
:1026E000FFF7F6FE4FF48060ADF8100004208DF87F
:1026F000130004A91248FFF7EBFE4FF4E1300090FD
:102700000020ADF80400ADF80600ADF80800ADF803
:102710000C000C20ADF80A0069460A4800F05AFD8A
:10272000012240F22551074800F02EFD0121054805
:1027300000F0E7FC4021034800F0DAFC05B000BDE2
:1027400000080140003801400146CA1701EB9272AF
:102750009210A1EB820292B9642091FBF0F200FB8F
:10276000121050B94FF4C87091FBF0F200FB121038
:1027700008B9012070470020FCE70120FAE700209B
:10278000F8E700BFFEE7704770B5002100230F2275
:10279000C47804B3154C246804F4E064C4F5E06420
:1027A000210AC1F10403CA40447804FA03F1847891
:1027B0001440214309010E4C0678A155047804F019
:1027C0001F050124AC4005786D11AD0005F1E02531
:1027D000C5F8004109E0047804F01F050124AC406D
:1027E000044D0678761145F8264070BD0CED00E0EA
:1027F00000E400E080E100E002490143024A116088
:10280000704700000000FA050CED00E00149086285
:102810007047000000000E4229B1064AD269024307
:10282000044BDA6104E0034AD2698243014BDA6166
:10283000704700000010024029B1064A9269024325
:10284000044B9A6104E0034A92698243014B9A6106
:102850007047000000100240014908607047000006
:10286000400442420348406A40F080700149486297
:10287000704700000010024030B500210022002403
:1028800000232D4D6D6805F00C0121B1042905D000
:10289000082923D105E0294D056022E0274D056078
:1028A0001FE0254D6D6805F47012234D6D6805F429
:1028B0008034022505EB92421CB9214D5543056039
:1028C0000BE01D4D6D6805F400351DB11C4D5543E1
:1028D000056002E0194D5543056002E0174D0560A3
:1028E00000BF00BF144D6D6805F0F0010909154DDA
:1028F0006B5C0568DD4045600F4D6D6805F4E06177
:10290000090A104D6B5C4568DD4085600A4D6D68B5
:1029100005F46051C90A0B4D6B5C4568DD40C5602C
:10292000054D6D6805F44041890B074D6B5CC5682A
:10293000B5FBF3F5056130BD0010024000127A00CE
:1029400000093D003D0000204D00002010B501466B
:102950000022002300204A11012A02D1094C2368D9
:1029600006E0022A02D1074C236A01E0054C636AA3
:1029700001F01F02012494401C400CB1012000E032
:10298000002010BD0010024001490860704700009F
:102990008004424201490860704700003C04424202
:1029A0000249096A0143014A11627047001002405E
:1029B00008B501210820FFF73FFF03208DF8020032
:1029C00010208DF803000420ADF80000694602488D
:1029D000FFF77EFD08BD0000000C01402DE9F04F1F
:1029E00004460D461646032D0CDBAC46642094FBD2
:1029F000F0F800FB1840C1B2642094FBF0F0C2B2C2
:102A0000374610E005F10C0000F0FF0C601E4FF09F
:102A1000640890FBF8F908FB1900C1B2601E90FB36
:102A2000F8F0C2B237460CF101094FF01A0A09FB5F
:102A30000AF94FF00A0A99FBFAF94FEAE17A01EB39
:102A40009A7A01EBAA0A4FEAE27B02EB9B7B0AEB44
:102A5000AB0A4FF0020B0BFB12AAD144B944A9F107
:102A600001090FFA89F30BB9072311E0002B0ADAE9
:102A700058424FF0070890FBF8F908FB1900C0F125
:102A8000070003B204E0072093FBF0F800FB1833C3
:102A9000D8B2BDE8F08F00000348008840F0100075
:102AA000014908807047000004280040034800885E
:102AB0004FF6EF7108400149088070470428004034
:102AC00000210022002308480188001D0388001F00
:102AD0000288914204D0001D008840EA02407047FD
:102AE00043EA0140FBE700001828004070B50026CB
:102AF00000240025FFF7E4FF06463748B6FBF0F454
:102B000036480088A0423AD034490C8040F2B27571
:102B10000EE02846FFF718FE30B1B4F5B77F02D3B8
:102B2000A4F5B77402E006E0A4F26D14681C85B247
:102B3000B4F5B67FEDD800BF29480580002516E022
:102B400027490888FFF700FE30B1012D04D11D2C64
:102B500001D31D3C09E00CE02248405DA04203D8AF
:102B60002048405D241A00E003E0681C85B21C2C5C
:102B7000E6D200BF681C1A498870601CC8701648ED
:102B8000B6FBF0F100FB11644FF46160B4FBF0F0B0
:102B9000134908714FF46160B4FBF0F100FB114080
:102BA0003C21B0FBF1F00E4948714FF46160B4FB79
:102BB000F0F100FB11403C21B0FBF1F201FB1200EF
:102BC000074988710B46DA7899781888FFF706FF6D
:102BD0000349C87170BD0000805101001E00002033
:102BE00016000020D868000800B50246FFF754FF21
:102BF000100C03490880091D0A80FFF757FF00BD2C
:102C00001828004000B50246FFF746FFC2F3034014
:102C100003490880091D0A80FFF748FF00BD000036
:102C20000828004000BF0348008800F0200000286A
:102C3000F9D0704704280040074800884FF6F77124
:102C400008400549088000BF0348008800F00800DC
:102C50000028F9D070470000042800402DE9F05FFB
:102C600006460F4690469946DDE90AAB0024B6F5C4
:102C7000FA6F03DB40F63300864202DD0020BDE838
:102C8000F09F40F2B2750AE02846FFF75DFD10B1F3
:102C90001E48044401E01E480444681C85B2B54245
:102CA000F2DB781EC7B2002510E01A48405D40F202
:102CB000A321484304EBC0143046FFF745FD18B18B
:102CC000012D01D114480444681C85B2BD42ECDBDF
:102CD000A8F1010040F2A321484304EBC014C9EB62
:102CE0004910C0EB092004EB0014CAEB0A1004EBF6
:102CF00080045C440120FFF789FDFFF793FF204625
:102D0000FFF772FFFFF78EFF0120B8E70085E201B1
:102D10008033E101D8680008805101002DE9F041BD
:102D200007460E4614461048104948626002886201
:102D3000224631460020FFF79FFB9B200B49C862CB
:102D40000B4D0DE00B48006800F4005038B14FF413
:102D500070400849091D08600120BDE8F0816D1E22
:102D6000002DEFD10020F8E7009F240000800140F3
:102D7000809698000004024010B500F001F810BDE4
:102D80000CB50020019000903348006840F480307A
:102D90003149086000BF3048006800F400300090FE
:102DA0000198401C0190009818B90198B0F5A06FE7
:102DB000F1D12948006800F4003010B101200090E2
:102DC00001E0002000900098012843D123480068CA
:102DD00040F01000214908600846006820F0030018
:102DE00008600846006840F0020008601A48406821
:102DF000194948600846406848600846406840F401
:102E0000806048600846406820F47C1048600846AE
:102E1000406840F4E81048600846006840F0807060
:102E2000086000BF0C48006800F000700028F9D06E
:102E30000948406820F00300074948600846406898
:102E400040F00200486000BF0348406800F00C00FA
:102E50000828F9D10CBD00000010024000200240FB
:102E600010B500F001F810BD10B51B48006840B166
:102E700019480068401E1849086010B90120174918
:102E80000870002408E004EB4401154A02EB8100BD
:102E900000F0CCFE601CC4B2042CF4DB11480068C6
:102EA000401C10490860084600686FF000418842E5
:102EB00002D100200B49086000F0B7FE0A480078F4
:102EC000401CC0B2084908700A2803DB00200870C3
:102ED00000F0AAFE10BD0000200000202400002009
:102EE0005C320020280000203C00002010B5134870
:102EF000006840F001001149086008464068104928
:102F000008400E494860084600680E4908400B49D1
:102F100008600846006820F4802008600846406881
:102F200020F4FE0048604FF41F008860FFF724FF84
:102F30004FF000600449086010BD0000001002401E
:102F40000000FFF8FFFFF6FE08ED00E010B50221DB
:102F5000480700F058F858B10221480700F044F83B
:102F600000220221480700F05FF81B4800688047F4
:102F70000421080700F047F858B10421080700F0C1
:102F800033F800220421080700F04EF813480068C7
:102F900080470821C80600F036F858B10821C80655
:102FA00000F022F800220821C80600F03DF80C4885
:102FB000006880471021880600F025F858B11021DC
:102FC000880600F011F800221021880600F02CF885
:102FD00004480068804710BD2C000020300000200D
:102FE0003400002038000020CA430282704721B11B
:102FF000028842F00102028004E002884FF6FE736C
:103000001A400280704730B5024600200023002499
:10301000158A05EA0103958905EA010413B10CB18B
:10302000012000E0002030BD1AB183890B43838169
:1030300002E083898B43838170470000002202886D
:103040001D4B98420ED01D4B98420BD0B0F1804FD3
:1030500008D01B4B984205D01A4B984202D01A4B0D
:10306000984204D14FF68F731A404B881A43174B7E
:10307000984207D0164B984204D04FF6FF431A40AF
:10308000CB881A4302808B8883850B8803850A4B83
:1030900098420BD0094B984208D00E4B984205D06D
:1030A0000D4B984202D00D4B984201D10B7A03860A
:1030B0000123838270470000002C0140003401404E
:1030C0000004004000080040000C004000100040D8
:1030D000001400400040014000440140004801400D
:1030E00010B5024800F0EBF810BD0000342A0020B3
:1030F00001F40072B2F5007F00D100BFCA43028024
:10310000704721B1828942F40052828104E08289B1
:103110004DF6FF731A408281704702460020B1F5D8
:10312000007F00D100BF13880B400BB1012000E0ED
:103130000020704770B502460024002300250020BF
:1031400040F66A16B14200D100BFC1F3421501F04A
:103150001F03012606FA03F3012D02D1968933409D
:1031600006E0022D02D1168A334001E0968A3340F0
:103170000C12012606FA04F41688344013B10CB17F
:10318000012000E0002070BDF0B5034600240026B9
:103190000025002040F66A17B94200D100BF18464A
:1031A000C1F3421401F01F06012707FA06F5012CAE
:1031B00001D10C3004E0022C01D1103000E01430B9
:1031C0001AB107682F43076002E00768AF43076042
:1031D000F0BD00002DE9F04786B005460E460024FC
:1031E000A24600BFA1460027B08900B100BF2F460C
:1031F0002C8A4CF6FF700440F08804432C82AC8982
:103200004EF6F3100440B0883189084371890843B1
:103210000443AC81AC8A4FF6FF400440B0890443BC
:10322000AC8201A8FFF728FB1F48874202D1DDF8D6
:1032300010A001E0DDF80CA0A88900F4004040B126
:103240000AEBCA0000EB0A1031684900B0FBF1F844
:1032500007E00AEBCA0000EB0A1031688900B0FBF6
:10326000F1F86420B8FBF0F004012009642101FBAF
:103270001089A88900F4004040B1322000EBC90059
:10328000B0FBF1F000F00700044308E0322000EB4F
:1032900009106421B0FBF1F000F00F0004432C8111
:1032A00006B0BDE8F087000000380140014688887C
:1032B000C0F308007047C1F308028280704770B500
:1032C000044640F225512068FFF734FFE0B1206842
:1032D000FFF7ECFFC5B2E18AA0684554E08A401CC4
:1032E00080B2E082E189884201DB0020E082608BCD
:1032F000E189884202DA608B401C6083606A10B109
:103300002846616A884700BF40F227712068FFF7AE
:1033100011FF08B3A08A60B9002240F2277120682B
:10332000FFF732FF012240F226612068FFF72CFFF1
:1033300037E0638A6268D15C2068FFF7BCFF608A6F
:10334000401C80B26082A189884201DB002060823B
:10335000A08A401EA08224E040F226612068FFF788
:10336000E9FEF0B1A08A50B9002240F2266120683F
:10337000FFF70AFF206AA0B1206A804711E0638A44
:103380006268D15C2068FFF796FF608A401C80B2BB
:103390006082A189884201DB00206082A08A401EF1
:1033A000A08270BD0A480B4908600B4848600B4872
:1033B00088604FF480608881C8810020088248823C
:1033C000C882088348838882C8610862486270475F
:1033D00000380140342A00205C2A00205C2E0020A6
:1033E000002012490860C860C8621148886311480B
:1033F00040686FF313000F494860084640680E4963
:1034000008430C4948600D48006820F470600B497F
:1034100008600846006840F4806008600848406919
:1034200020F4806006494861012070470080014017
:10343000FF07C00000100140444404000014014094
:103440000010024000BFFEE72DE9F04180460E4625
:103450001446002735E01D481D494862481588621A
:10346000012231461046FFF707F899201849C86233
:10347000184D0BE01848006800F4005028B14FF4D4
:1034800070401549091D086002E06D1E002DF1D144
:1034900000BF15B90020BDE8F081012C01D1012049
:1034A000F9E706E00A48406B00F00A0008B1002086
:1034B000F1E70748406BB0F5A06FF3D106F5007651
:1034C0007F1CA742C7D30120E5E70000003E49006A
:1034D000008001408096980000040240490050EAB4
:1034E000C12018BF04204A0D18BF40F0010040F26F
:1034F000FF72B2EB515F08BF40F00200012808BF25
:103500000520704780F310887047000070B50446AE
:103510001148AFF30080114904EBC40001EB8004B3
:103520000025A0886E1E8107002906D00ADA8006D1
:10353000204604D501F029F904E0344604E000F007
:1035400016FE30B1A58000240348AFF3008020466A
:1035500070BDA580F1E700000000000080000020A1
:1035600010B504460C48AFF300800C4904EBC400CE
:1035700001EB8004A088810703D0800603D5E468AE
:1035800005E0002403E0204600F0EEFDA4680248B8
:10359000AFF30080204610BD000000008000002036
:1035A000F8B507460E463148AFF30080684601F093
:1035B00039FE04004FF0FF352FD00146384601F0A8
:1035C00071FE0746206840B3A088810606D53246C2
:1035D0003946204601F009FAF8B93FE0B1071CD49A
:1035E00016F00C0104D0042908D0082915D102E0F6
:1035F00040F0010005E040F00400A08080B240F0FF
:103600000200A0802146384600F0ACFD00260128CB
:10361000207904D0C00727D11AE02C461FE080078C
:1036200001D5032100E00221204601F0A5FDD8B913
:10363000A088410703D5204600F096FD0EE0C007A4
:1036400002D0E069206209E0204600F089FD58B10F
:10365000A6822146384600F081FD28B1009C03482F
:10366000AFF300802046F8BDA680D6E7000000003A
:1036700070B504460D460F48AFF300800E4904EBC9
:10368000C40001EB80004FF0FF3481888A070BD023
:103690008906294603D501F080FA20B104E000F044
:1036A00064FD012800D100240248AFF300802046C9
:1036B00070BD000000000000800000202DE9F041F6
:1036C000074616460D461148AFF300804FF0FF3411
:1036D000B5B10F4907EBC70001EB800081888A076D
:1036E0000ED001F00F02012A0AD08906324629467F
:1036F00002D501F0ADFA01E000F03BFD00B100247D
:103700000248AFF300802046BDE8F08100000000D1
:103710008000002030380A2801D2012070470020A4
:10372000704710B50446B4F5004F01DD002010BD10
:103730002046FFF7EBFEFAE700BFFEE710B50446B0
:10374000B4F5004F01DD002010BD2046FFF708FF53
:10375000FAE70146B1F5004F01DD01207047002076
:10376000FCE7000070B504460D460EA12046FDF7AB
:10377000B1F810B948F2010070BD0CA12046FDF768
:10378000A9F810B948F20200F6E70AA12046FDF7B1
:10379000A1F810B948F20300EEE729462046FFF7EA
:1037A000FFFEE9E7535444494E0000005354444F90
:1037B00055540000535444455252000070B504461D
:1037C0000D46B4F5004F02DD4FF0FF3070BD2946C5
:1037D0002046FFF74DFFF9E72DE9F04104460D467D
:1037E00016461F4648F2020084420AD104E015F84A
:1037F000010B02F0C7FC761E002EF8D10020BDE8B8
:10380000F081B4F5004F02DD4FF0FF30F7E73246AC
:1038100029462046FFF752FFF1E710B5044620463F
:1038200002F0B0FC10BD2DE9F04116460C460746EB
:103830000D6801F073FE002818D0387F01F02CFECF
:1038400002463846216802F058FE00280ED036B1F4
:1038500029463846226802F050FE002806D0002192
:10386000384600F03FFA002800D00120BDE8F08182
:1038700010B50446816902F05CFC002809D0E06DB7
:1038800000F5FF7001F0CFFEA0F52A41553901D0B7
:10389000002010BDE06D417BA1770B3001F0C3FE2D
:1038A000E085E06D0E3001F0BEFE6084E06D017CCD
:1038B0006177113001F0B7FEA085E06D133001F0A3
:1038C000B2FE6062E06D163001F0ADFE2084616AE8
:1038D000E9B9B8B9E06D283001F0A5FEE087E06DE8
:1038E0002C3001F0A5FE2064E06D303001F09BFE2D
:1038F000A4F84400E06D323001F095FEA4F84600D3
:10390000606A20B9E06D203001F092FE6062208C88
:1039100020B9E06D243001F08BFE2084012010BD21
:103920000146042901DB0020704701EB4100084AF1
:1039300002EB80004078012808D1002001EB410211
:10394000034B03EB820250700120EDE70020EBE710
:103950005C32002010B54FF44070FEF74DFF00F0D0
:1039600017F900F039F800F06DF800F0C1F810BD5B
:103970007FB501210846FEF74FFF1548006846084D
:103980001448B6FBF0F085B24FF6FF74ADF808406E
:10399000ADF804500020ADF80A00ADF8060001A90A
:1039A0004FF08040FFF74AFB01218807FFF71FFB1C
:1039B0001C208DF8000004208DF8010000208DF8F7
:1039C000020001208DF803006846FEF7DDFE7FBD92
:1039D0005400002040420F0008B501210420FEF7EA
:1039E0002BFF012000F0DEF8022000F0DBF80320BE
:1039F00000F0D8F8042000F0D5F803208DF802007C
:103A000010208DF803008020ADF8000069460C48B6
:103A1000FEF75EFD8020ADF8000069460848FEF71D
:103A200057FD8020ADF8000069460548FEF750FDBF
:103A30008020ADF8000069460148FEF749FD08BD49
:103A4000000801401CB50420FEF7E6FA4AF2A55131
:103A5000884236D001214FF0C050FEF7DDFE012034
:103A6000FEF7D4FEFEF7D0FA0120FEF78DFF00BF6F
:103A70006120FEF76BFF0028FAD04FF40070FEF7CC
:103A80008FFF0120FEF786FFFFF7D6F8FFF7CAF891
:103A900049F63F40FFF7B6F8FFF7C4F80020009062
:103AA000034608221146019040F2DF70FFF7D6F876
:103AB0004AF2A5510420FEF7BDFA7B20FEF746FF2F
:103AC00015E001214FF0C050FEF7A6FE002401E0F2
:103AD000601C84B241F288308442F9DB7B20FEF71F
:103AE00035FF10B97A20FEF731FFFEF7BBFE1CBD93
:103AF00070B5002416E0002004EB4401204A02EBDC
:103B00008101486004EB440102EB8101886004EB11
:103B1000440102EB8101487004EB440102F82100EA
:103B2000601CC4B2042CE6DB164800684FF47A72BD
:103B3000B0FBF2F1B1F1807F00D31DE021F07F40B6
:103B4000401E4FF0E022506150170F22002807DA84
:103B500013071E0E0C4B00F00F052D1F5E5503E0E2
:103B600013071D0E094B1D5400BF00204FF0E0222B
:103B700090610720106100BFFFF7FAFE70BD0000E2
:103B80005C3200205400002018ED00E000E400E06A
:103B900010B5FFF707FCFEF78DFDFEF709FFFEF7F6
:103BA0000DFB10BD411EC8B218B980210A4A116030
:103BB00010E0012803D18021074A11600AE00228A1
:103BC00003D18021044A116004E0032802D180213E
:103BD000014A11607047000010080140012806D119
:103BE0001049096881F080010E4A116019E002282D
:103BF00006D10C49096881F080010A4A116010E081
:103C0000032806D10749096881F08001054A11603F
:103C100007E0042805D10349096881F08001014AC1
:103C2000116070470C08014070477047416851B1FE
:103C30004168491E416031B9012141700178012973
:103C400001D181684160704770B504460D46042C6F
:103C500006DB124A12A11AA0FCF7FAFA00BFFEE72F
:103C60000120FFF74FFC04EB44001D4901EB8000ED
:103C7000456004EB440001EB80008560002004EB0C
:103C80004401174A02EB81014870012004EB440112
:103C900002F821000020FFF735FC70BDF368000832
:103CA0002E2E5C2E2E5C557365725C6273705C7395
:103CB00072635C6273705F74696D65722E6300007D
:103CC0004572726F723A2066696C652025732C20EC
:103CD00066756E6374696F6E20257328290D0A005E
:103CE0005C32002070B50446806C0D46A8423ED080
:103CF00094F85010012928D166697EB1217889068F
:103D00000CD5617F022906D0002201463046E36CC3
:103D100001F076FB14E0218C4218F6E76268E16C52
:103D2000D36801229847002820D0607F022809D15B
:103D30006268218CA06CD3680844E16C012298472A
:103D4000002813D0002084F8500085B194F8510069
:103D5000218C6268484328449368E16C01229847AB
:103D6000012806D04FF0FF30A064002070BD012074
:103D700070BDA564FBE770B50546183000F01AF871
:103D800006464FF40071E86DFCF75AFD002406E08A
:103D90003119284602F05AFB00280AD0641CA87F7B
:103DA000A042F5D80021284602F050FB002800D0A0
:103DB000012070BD838B02681A44037941B1032B43
:103DC00001D0C38B1A448079891E01FB0020704703
:103DD000032BF8D0104670472DE9F0410446007FD0
:103DE0000025012806D0022838D0032857D000200B
:103DF000BDE8F08102262CE03146204601F074FB3C
:103E0000804601462046FFF76DFF002867D006EB8D
:103E10004600C0F34800B0F5FF7F04D8E16C0844C9
:103E200001F001FC0CE0E06C08F1010190F8FF7179
:103E30002046FFF757FF88B3E06C007847EA002080
:103E4000F10701D0000901E0C0F30B0000B96D1CBF
:103E5000761C206B801CB042CED840E00221204668
:103E600001F042FB074601462046FFF73BFFA8B1A1
:103E700002260FE016F0FF0F05D17F1C39462046C1
:103E8000FFF730FF50B1E06CF1B230F8110000B92B
:103E90006D1C761C206B801CB042EBD81FE0022109
:103EA000204601F021FB074601462046FFF71AFF96
:103EB000A8B102260FE0700605D17F1C39462046C6
:103EC000FFF710FF58B1E06C06F07F0150F82100B9
:103ED00000B96D1C761C206B801CB042EBD82846C4
:103EE00086E700002DE9FE430D4604460020CDE99B
:103EF00001501646694601A800F015FC10B10120DA
:103F0000BDE8FE8301F078FB804601F0D6FA074653
:103F10000B2223A10098FCF761FC00981021C172CC
:103F200041460E3002F091F900983946103002F007
:103F30008CF900983946123002F087F90098414612
:103F4000163002F082F900983946183002F07DF9F7
:103F50000099202201F12000FCF740FC0098290C78
:103F6000143002F072F90098A9B21A3002F06DF91B
:103F700000982E21203000904170316CA14200D178
:103F80000024210C143002F060F90098A1B21A301C
:103F900002F05BF9314601A800F06CFBB0E70000CD
:103FA0002E20202020202020202020002DE9F84352
:103FB0008846089E154604461F46324669464046D6
:103FC00000F0B1FB78BB00990020225C0A54401C31
:103FD0000B28FAD3CF7200240C734C7301F00CFB46
:103FE000014600980E3002F030F901F066FA014601
:103FF0000098103002F029F90098018A4182C289A4
:10400000C2820183290C143002F01FF90098A9B272
:104010001A3002F01AF900983146C461404600F0A7
:1040200029FB002800D00120BDE8F883F0B50E4A36
:1040300000230424526802EB011292F90C10436130
:10404000156805EBC10637685FB104EBC1032B446B
:104050001B6858610361126804EBC10111440860D8
:10406000F0BD3060F6E700006C00002030B500289D
:104070000DD0164D036900226D68042405EB011173
:1040800033B14569C5B15D6101694069016130BD08
:1040900091F90C3045692DB12A610968406901EB3D
:1040A000C30111E0086804EBC304204402600868FF
:1040B00000EBC300026030BD5A6191F90C20096821
:1040C000006904EBC2021144086030BD6C0000209E
:1040D0002DE9F04106461F481F4F4FF000080478B5
:1040E000641E786800EB0610016801EBC4010D68DE
:1040F000D5B1696979B13146284600F0D7F898B949
:104100006969C1F810807968686901EB061109686E
:1041100001EBC4011BE090F90D00A04204DA314626
:10412000284600F0C3F820B1641EDAD50020BDE8AF
:10413000F0817968404601EB06110A6802EBC4027F
:10414000C2F800800968042202EBC402114408602E
:104150002846ECE7AC6800086C000020002070479F
:1041600000207047002070477047002070470020F3
:1041700070470020704700000B4A10B5116819B154
:104180000846C968116001E0FFF7A2FF002809D0C6
:104190000021016041608160C16001614161491E8F
:1041A0008161C16110BD00006C000020FF2939D081
:1041B0001D4A0628526802EB011222D2DFE800F005
:1041C00003060A152129507B401C01E0507B401E4C
:1041D000507316E092F90C0092F90D10884210D13C
:1041E0009068006868B140680AE092F90C0092F9A2
:1041F0000D10884205D19068C06810B1012800D028
:10420000906092F90C0092F90D1088420AD19068E2
:10421000704792F90D00054A1278904202DA08467A
:10422000FFF7AABF002070476C000020AC680008B0
:1042300070B51D4E04461546706800EB0510806889
:1042400030B12CB131B10022012906D0022911D0A0
:10425000012070BD4460206018E001682160816821
:1042600021B1CC60A160E06084600FE001684C6027
:10427000A260F8E7C168012900D1C260016821602D
:10428000C168C46061B1E160A0608C6029462046CD
:10429000FFF7CCFE706800EB05108460002070BD55
:1042A000A060E260F2E700006C00002010B518B1D9
:1042B00042681AB1012A01D0012010BDC268002352
:1042C000012A00D1C36082688AB1C468BCB1D460DD
:1042D000C36882689A600E4A526802EB01118A68CC
:1042E000824202D1826862B18A60002010BD0468F7
:1042F000C2686260C268002AEDD09360EBE7D360C9
:10430000E9E70A7B521E0A7300688860EDE7000047
:104310006C00002070B5020023D01578522D20D0FB
:1043200015490020154B4C680BE000BF04EB001151
:1043300011F80E6FAE4203D149785678B14211D0D0
:10434000401C59788142F1D8002007E004EB0011AD
:1043500011F80E6F0EB94E782EB1401C597881427B
:10436000F4D8FF2070BD0D7052784A7004EB001233
:104370000021516070BD00006C000020AC68000896
:104380002DE9F047FFF7C6FF0546FF281CD0204C5B
:10439000606800EB0510406800F03EF860684FF080
:1043A000000800EB0510C0F80480806840B3DFF817
:1043B00064A000264FF00409606800EB0510006857
:1043C00000EBC600006806E00120BDE8F087476901
:1043D00000F022F838460028F9D1616801EB051198
:1043E0000A6802EBC602C2F800800A6809EBC6013F
:1043F0001144761CC1F800809AF80000B042DBD866
:104400006168002001EB0511C1F80880DDE70000BC
:104410006C000020AC680008002803D002490A683C
:10442000C2600860704700006C0000202DE9F04376
:104430002F484178F1B32F4D8468002211466C60FB
:1044400007E000BF04EB0213521C59609960997396
:10445000D97343789342F5D8A946002504EB02129C
:1044600004271CE004EB0516002332600EE000BFB9
:10447000D6F800C007EBC3080CEBC30C5B1CCCF8F0
:104480000010D6F800C0C444CCF8001090F800C06A
:104490009C45EDD80CF0FF0302EBC3026D1C437882
:1044A000AB42DFD81B06447805781B0D6C4303EB49
:1044B000C40300E019E04068C01A3023B0FBF3F0F9
:1044C00098B1401E00EB400302EB0313C9F8002033
:1044D000D96007D000EB400102EB0111401E41F80A
:1044E000241CF7D10020BDE8F0830120FBE7000089
:1044F000AC6800086C00002070B5FFF70BFF0446A5
:10450000FF281AD00E4D0026FF21686800EB04102A
:1045100046730173406830B92046FFF72DFE696885
:1045200001EB04114860686800EB041042685168B0
:1045300011B18160067300E08260204670BD00000A
:104540006C0000202DE9F041234E8046174670682C
:1045500000EB0710846890F90C1090F90D0081426F
:1045600001DA002517E04146204600F06FF80546C5
:10457000022D05D0012D09D06DB10020BDE8F081DC
:10458000E06808B1012804D129461BE0A068002892
:10459000FAD004460FE0706800EB0711087B401C5E
:1045A000087360680028EFD00128EDD0044641462A
:1045B00000F04CF805464146204600F047F8014619
:1045C0008D42D5D070683A4600EB071084604046B3
:1045D000BDE8F041FFF72CBE6C00002070B5FF2A4B
:1045E00030D0194B5B6803EB021393F90C5093F92D
:1045F0000D609C68B54207DA64681CB3012C21D0B9
:104600009C606D1C1D7303E0256805B16C68CCB11E
:104610009C600C60A569854202D0E56985420CD199
:104620006069154638B111462046FFF71FFD29463F
:104630002046FFF7FBFC002070BDE468012CE6D1AA
:10464000022070BD012070BD6C0000208A6A836A60
:104650009A420DD1C98DC08D814202D94FF002001E
:10466000704702D24FF0010070474FF003007047CF
:10467000F8D9F3E770B50D460446016805F1180056
:10468000FFF798FB6168012200EB1111284601F049
:10469000A8FF08B1002070BD072070BDA9B18A69CC
:1046A000521C026808D04B6A9A420ED14068898D2C
:1046B00088420AD1022070478B6A9A4205D140682D
:1046C000C98D884201D1012070470020704738B55C
:1046D0001546044611B96068401C6060287F0328B5
:1046E0001BD02068C8B96068B0F5007F19D10220DE
:1046F00038BD081A6060206800906946284601F0BD
:1047000053FD30B1287F009901F006F818B101205F
:1047100038BD032038BD00982060A88F61688142B1
:10472000E7D2002038BD70B50E4604460168154634
:1047300002F11800FFF73EFB616800EB11112846FB
:1047400001F0F7FC40B12179E86D01F00F0100EBB9
:1047500041103060002070BD012070BD017861B152
:10476000E5290CD0C07A00F03F010F2909D0C0F331
:10477000C100012807D004207047002070470120A5
:10478000704703207047022070473EB50446007909
:10479000C00664D425681421284600F0BFFC50B13F
:1047A000D4E90201814245D9491E204600F0F5F9BD
:1047B000002854D104E0A08840F01000A0804EE012
:1047C000287F00F069FE02462846A16901F095FEA7
:1047D000E8B3E0690190208C02902A46694601A85E
:1047E000FFF7A1FF98BB6069010C0098143001F03D
:1047F0002CFDA08A81B200981A3001F026FD0098A5
:10480000E1681C3001F025FD00F0F6FE014600983D
:10481000163001F01AFD00F050FE014600981830E5
:1048200001F013FD0098018B4182294601A8FFF792
:1048300021FF60B9287F032803D1284600F0AEFD90
:1048400028B10021284601F001FE00B100E006E099
:1048500000212846FFF746FA08B100203EBD01209E
:104860003EBD000030B50346094C0CE0585CA0F199
:104870006105192D01D820F0200080EA126054F85B
:10488000200080EA0222491EF0D2104630BD00000E
:10489000EC6900082DE9F0474FF0FF3600F14804BD
:1048A00086648068606000252572657200F500717D
:1048B00000F58060E660C4E9051025776577483C1F
:1048C000204600F099FCFFF75BFD0227302104F140
:1048D0001800E766FBF7D6FF0021204601F029FC0F
:1048E00018B3E06D00F5FF7000F09DFEA0F52A41C1
:1048F00055391AD1E06D0178E92914D0EB2902D19C
:10490000817890290FD000F5E37000F091FEA0614E
:104910004FF001092046FEF7ABFF48B1E18DB1F53C
:10492000007F46D106E0A561F2E70220BDE8F087EE
:104930000320FBE7A27F102A0FD008DC012A0CD04D
:10494000022A0AD0042A08D0082A32D105E0202AF7
:1049500003D0402A01D0802A2BD1B4F822C0BCF168
:10496000000F26D0657F012D01D0022D21D1238C8F
:10497000606A83421DD8B4F82C8005FB03C306EBA4
:10498000481606F5007696FBF1F15D18401BA06213
:10499000B0FBF2F02063A386E1865102A163C1F36C
:1049A0004F11A18740F6F571884204D284F81C901B
:1049B00015E00420BAE74FF6F571884201D2277757
:1049C0000DE003202077204600F0A8FC38B92046EF
:1049D000FFF702FAA066204600F0E0FC08B10020D4
:1049E000A4E70520A2E7012070472DE9F04F87B02A
:1049F000914604000E4608D03EB1084601F06AFB1D
:104A000028B1052007B0BDE8F08F0320FAE70020A9
:104A100019F00C0104D0042905D008297DD101E04A
:104A2000012502E0042040F00205D4F80080404651
:104A300000F0E2FBFFF760FD0146C8F87010404649
:104A4000029601F0FBFB00904146684601F0ECFA4B
:104A500006004FF0000A0DF1100B02D00C2E66D0AC
:104A600099E09DF81810059842460844401E0590AC
:104A700001215846FFF72BFE002867D1A807002820
:104A80000598434681B2049801DA032200E002222D
:104A900000F092FB28B9022D52D10198C07AC007CC
:104AA00001D00220AEE701981A3000F0BCFD0746A5
:104AB0000198143000F0B7FD07EB0040606100F092
:104AC0009BFD014601980E3001F0BFFB00F0F5FCA4
:104AD00001460198103001F0B8FB01980199008A55
:104AE000488201980199C089C88201980199008A79
:104AF000088301995846A1F814A00199A1F81AA0B9
:104B00000199C1F81CA04146FFF7B4FD28B9404601
:104B1000616901F0FFFB00B100E017E098F81C00AC
:104B200003280DD1404600F039FC78B108E0E807D1
:104B300031D142460021684601F0B4F906002AD17D
:104B400001A958462268FFF7EEFD08B1012059E798
:104B500001981C3000F06CFDA060C4E9030A0498C1
:104B6000E061059820840198D0461A3000F05BFD82
:104B700007460198143000F056FD07EB00406061D5
:104B8000A06184F822805FEA897001D545F00B05A9
:104B9000A0882843A080304634E72DE9F0470D4631
:104BA000040010D0A088C10650D480074ED02668DB
:104BB0000421304600F0B2FA38B12169A94209D186
:104BC0000020BDE8F0870320FBE7A08840F010003C
:104BD000A0803BE0E068A84200D20546680AB27FA8
:104BE000A942B0FBF2F302FB130084F822000FD2BB
:104BF000B06BA769B1FBF0F200FB1212691A5318EF
:104C0000834218D3821A891AB1FBF0F0401C04E0E9
:104C1000B06B6769B5FBF0F0A7615FEA00080AD0E6
:104C200004F1180949463046A76901F0BDFA68B198
:104C3000B8F10108F6D1307FA16900F06DFD18B11F
:104C4000B07F84F82200A7612561B9E70120B8E7A9
:104C50002DE9F74F0446007984B09046C00603D58D
:104C6000002007B0BDE8F08F27681421384600F017
:104C700055FA68B1A1884FF4007A0AEA81100290CF
:104C800004F1180061694FF0000B009029B10EE0AB
:104C9000A08840F01000A080E2E784F822B03846F7
:104CA000009900F03BFC0028DBD0A0696061208AFD
:104CB0000025C0F3080652E094F82200B97F88422C
:104CC0001AD12069E1682844884204D23846009904
:104CD00001F06AFA0CE0D4F818903846009900F018
:104CE0001DFC0028BDD049463846A26901F005FCEC
:104CF0000028B6D084F822B007F11800A169FFF7A8
:104D000059F894F82210A8EB05090844019009EB22
:104D10000600504501D9C6F5007916B902998945B2
:104D200005D23846019901F004FA002899D0059877
:104D30004A464119F86D3044FBF70BFD384601999E
:104D400001F084FB00288CD006EB0900C605F60DA7
:104D500004D194F82200401C84F822004D444545BB
:104D6000AAD3206928442061E168884200D9E06024
:104D7000012076E700230B604B608B60CB6001283D
:104D80001FD0521C12F8010C8871108840BA88801C
:104D900090788873D0784873107908735079C87206
:104DA00090798872D079C8719068D37A00BA20F06F
:104DB000FF0018430860908940BAC0F30B000881D7
:104DC00070471078887190788880D078C87310798F
:104DD00088735079487390790873D079C872107AC3
:104DE0008872507AC871D2F80A00537B00BA20F05A
:104DF000FF0018430860907BE1E70000F0B504462F
:104E000089B01A48AFF3008000F050F9BCB100201F
:104E1000ADF8040000906946204600F043FA00987F
:104E200008B3BDF8040000F02001009800F00BFC6E
:104E300004460E48AFF3008009B02046F0BD0024C0
:104E40000B4D26460B4F0AE0E87900F00401286874
:104E500000F0F9FBA04200DD0446761C08353888D6
:104E60008642F1DBE5E70324E3E7000000000000F1
:104E7000D0680008AA6800088A68002A01DCFCF7EC
:104E80007BB8521E8A604A68C0B2531C4B601070D7
:104E900070472DE9FE43884604461D46174602200A
:104EA000196FFFF783F90020CDE900400446042084
:104EB000296FFFF77BF9064601466846FFF7EEFBD0
:104EC00010B102281CD01FE02A4602A96846FFF74D
:104ED0002AFC10B10320BDE8FE830298FFF73EFCD8
:104EE000012802D008B1002412E01CB900983860F3
:104EF00001987860641CE4B2444509D10020EAE7D7
:104F0000B06A0090F08D01900320296FFFF74EF9F1
:104F10002A4600216846FFF7DAFB0028C7D001289F
:104F20000BD1012269462846FEF77DFC28B12846B0
:104F30000099FEF720FF0028B9D10120CBE72DE929
:104F4000F04F89B005464FF000090068CDE900092F
:104F50008846CDF80C904FF0FF3ACB46096F0220FF
:104F6000FFF724F90446002768462146FFF796FB21
:104F700038B1022803D1A06A0090E08D019001268B
:104F800051E04E46424602A96846FFF7CCFB002896
:104F90005AD10298FFF7E2FB002857D0042842D1EB
:104FA0000398401C2876012805D1DDE90001C5E9F8
:104FB00004014FF0000B04A8029901F052F92A7B7A
:104FC000904206D104A8A968FBF7AAFB08B94FF0E4
:104FD000010B0520D8F87010FFF7E8F8040017D08F
:104FE000C4F818A0E169029801F05FF9E061287E39
:104FF0002062C4F82480A4F82C800098A062019854
:10500000E08500212046D8F87020FFF79BFA0127A1
:10501000BBF1000F05D002986860002009B0BDE820
:10502000F08F002003903E4305D00320D8F8701085
:10503000FFF7BCF80446424600216846FFF747FBED
:10504000002890D0012801D00120E7E70C20E5E7F7
:105050003EB50446086F0D46FF280AD0217B4FF06D
:10506000FF32A068FFF7FEFB02A92A6FFFF7B6FA2E
:1050700008B10C203EBD029890F82010217601293D
:1050800010D0416A2161818D6161816A0091C08D7A
:1050900001902A46211D6846FFF745FB0028E9D00C
:1050A00001203EBD816A2161C18DEDE770B5164CCE
:1050B0002078002827D100F049F8FFF7B7F900223F
:1050C000124811464025124B0BE0C6797607066858
:1050D000316004D40679522E01D106683560521C25
:1050E00008301E88B242F0D300200A4A0A4B05E07D
:1050F00000EBC00502EB8505401CA9801D88A84275
:10510000F6D30120207070BD68000020D068000830
:10511000AA68000880000020A868000810B50446AE
:105120000068814301D0002010BD000706D46068EC
:105130000021426908469047C00701D0012010BDF8
:10514000206820F006002060EDE7000007481021ED
:1051500000F17402C160A0F5105181600449416002
:105160000449D1600021416101827047B0290020CB
:10517000B86800081469000870B500230C4A0D4C8B
:1051800010E082420CD015680668B54208D09588B8
:105190000D4205D0958A868AB54201D1012070BDA5
:1051A0005B1C24322588AB42EBD3002070BD00008D
:1051B00080000020A8680008F0B500250C4C0D4FB9
:1051C00011E0A6886EB1D4F800C09C4509D1164202
:1051D00007D0268C8E4204D1E669864201D1012097
:1051E000F0BD6D1C24343E88B542EAD30020F0BDEA
:1051F00080000020A868000810B50246074800217A
:10520000074B06E00468944201D1001D10BD491C03
:1052100008301C88A142F5D3002010BDD0680008DA
:10522000AA68000870B5064600240A4D0A4804E042
:105230002979890706D02435641C01888C42F7DB64
:10524000002070BD24212846FBF71CFB06B134600A
:10525000284670BD80000020A86800082DE9F041B4
:10526000FDF744FC0548C47885780688300440EA98
:10527000052040EA04073846BDE8F081160000200A
:105280002DE9F041FDF732FC05480479457986792E
:10529000200440EA052040EA06073846BDE8F081D0
:1052A00016000020F0B51B4A1B4CE8B10378DBB1B7
:1052B00023F0200643783A2B03D085783A2D03D08B
:1052C00012E03023801C01E073B1C01C002507E010
:1052D0001779B74202D157799F420AD06D1C083224
:1052E0002788BD42F4DBF0BD00230EE0D579ED0741
:1052F00009D013680B60D2795207F4D58A8842F03E
:1053000020028A80F0BD5B1C08322588AB42EDDBB1
:10531000F0BD0000D0680008AA68000810B5044677
:105320008069B4F844100144204600F002FF0028D0
:1053300029D0E06D00F5FE7000F07AF9144988423A
:1053400020D1E06D00F074F9124988421AD1E06D65
:1053500000F5F27000F06CF90F49884212D1E06D4F
:1053600000F5F47000F064F9216B81420AD3A06665
:10537000E06D00F5F67000F05BF9022802D3216BB6
:10538000814201D2002010BDE066012010BD000066
:10539000000055AA525261417272416110B5044633
:1053A000C06D4FF40071FBF74BFA1349E06D00F04C
:1053B00050FFE06D114900F5F27000F04AFFE06D1A
:1053C000A16E00F5F47000F044FFE06DE16E00F5B1
:1053D000F67000F03EFFE06D4AF6552100F5FF70D3
:1053E00000F033FFB4F84410A06901442046BDE842
:1053F000104001F02BB800005252614172724161BD
:10540000002070472DE9F043044689B01E48AFF3F1
:105410000080DFF8788098F80000C8B10027CCB190
:10542000ADF80470694620460097FFF73BFF0098EF
:1054300040B3BDF8040000F02001009800F042FFE6
:1054400004461148AFF3008009B02046BDE8F08360
:105450000024F6E700240E4D2646DFF838900AE0D7
:10546000E87900F00401286800F02CFFA04200DD7C
:105470000446761C0835B9F800008642F0DB88F84F
:105480000070DEE70324DCE7000000006800002075
:10549000D0680008AA680008012805D0022806D0B4
:1054A000032807D00020704740F6FF7070474FF682
:1054B000FF7070476FF07040704710B5FFF7CEFE79
:1054C00010F01F0100D10121C0F303220C2A00D8E3
:1054D00002B9012241EA4211442202EB104000F0DD
:1054E0007F0041EA402010BD027F012A04D0022A39
:1054F00006D0032A0AD105E001EB4101890A02E046
:10550000090A00E0C909028C8A4201D800207047CC
:105510008269408C10440844704700002DE9F04136
:105520000E460546C46E5DE021462846FFF7DCFFC7
:10553000804601462846FEF7D5FB002838D0287F54
:10554000012804D0022823D0032830D127E004EB1F
:105550004400C0F34800B0F5FF7F04D8E96C08446C
:1055600000F061F80DE0E86C08F1010190F8FF71BE
:105570002846FEF7B7FB00281AD0E86C007847EA07
:105580000020E10701D000090FE0C0F30B000CE0A0
:10559000E96C200601EBD05000F045F805E0E96C1D
:1055A000600601EBD05000F043F818B119E000207C
:1055B000BDE8F0810E480021222302880D4809E051
:1055C000878833EA070703D1D0F818C0A44508D06C
:1055D0002430491C9142F3D33460641C0120EC66F2
:1055E000E6E7641C286B801CA0429DD8EC66DEE7D1
:1055F000A86800088000002010B5FFF741FEC0F346
:1056000044011D2900D90021C0F305223B2A00D9FD
:105610000022C0F3044041EA4211172800D91720A4
:1056200041EAC02010BD4178007840EA012070476F
:10563000C1788278090641EA02414278007841EA5D
:1056400002210843704710B504460020B9B36168D1
:1056500019B12178C90702D00BE0032010BD2060EA
:10566000606801680020884750B3206840F001015D
:105670002160206820F01E012160606800214269DD
:1056800008469047010603D5206840F0180106E05F
:10569000C1073AD0800703D4206840F01001216090
:1056A000606801680120884750B1206840F002011D
:1056B00020462160FFF7EEF818B1022010BD0AE085
:1056C00023E0206840F0040120462160FFF78BF9B9
:1056D00000BB0420F2E72084616869B12178C90722
:1056E0000AD12060D4E90120E1691268904760B1D5
:1056F000206840F001002060206840F00401216033
:10570000606820B1806810B104E00120D6E741F064
:10571000100020600020D1E7012804D0022805D025
:1057200003280FD107E040F6F87001E04FF6F8705B
:10573000814205D206E021F070400349884201D33E
:105740000120704700207047F8FFFF0FFEF702F9B5
:1057500001E0FCF77EFEFCE7014A00F021B8000002
:10576000242A0020014900F02DB80000242A00203E
:10577000014900F059B90000242A0020014B00F033
:1057800091B90000242A0020014900F0D7B9000097
:10579000242A0020014B00F0DEB90000242A00205A
:1057A00028B1022809D0032809D000207047D0680A
:1057B000806A00B1004780207047906870471046AB
:1057C00000F015BA2DE9F0438BB00C4610B101285A
:1057D0007ED10AE0E06800688047002879D0E06860
:1057E000816841F28830884719E1E06841694FF4E7
:1057F000C8708847E06881680A208847E06800230D
:105800001A46856919461846A84700202070A080CE
:10581000E068C16801208847E06881680A208847FD
:10582000E06801224FF4D575866903AB294608204C
:10583000B04720B10398A84201D103202070794FCE
:1058400000254FF416784FF4FA764FF00109204600
:1058500000F086FA01281DD12078032812D00020FC
:1058600047EA8071E068012203ABD0F818C0292014
:10587000E04778B1039800280CDA2078032803D099
:10588000022005E00120EBE70398400030D504201A
:1058900020702DE0E0688168304688476D1C4545E2
:1058A000D5D3207820BBE068C16800208847E06835
:1058B00081680A2088470025E068012203ABD0F800
:1058C00018C039461046E04740B10398002801E06F
:1058D000A1E084E002DA84F8009009E0E0688168E1
:1058E000304688476D1CC82DE6D32078002876D036
:1058F0000025E068022207AB866900211046B04708
:1059000088B120780999022804D30A9A090241EA49
:10591000126103E00A9A090441EA12410026A160DB
:10592000012804D005E06D1C322DE2D373E04FF462
:1059300080360025E068012207AB876931460320E5
:10594000B84720B10798C0F30320052803D06D1C89
:10595000322DEFD35FE00798010CA1802078012859
:1059600007D1E068C16801208847E06881680A20A3
:1059700088476946204600F07BF900284CD0E16852
:10598000BDF8080049698847E06881680A208847AF
:10599000204600F0C7F900283ED0207802281FD307
:1059A000E068016904208847D0B1E06881680A2076
:1059B00088470025204600F0D3F960B1E068012255
:1059C0000A21866907AB0620B04720B10798C0F3CB
:1059D000032009280CD06D1C322DEBD31BE01BE0FB
:1059E000E068016901208847E06881680A208847EB
:1059F00000254FF40077E068012207AB866939463D
:105A00001020B04720B10798C0F30320092806D022
:105A10006D1C322DEFD300200BB0BDE8F0830120C8
:105A2000FAE700000080FF0070B50D4688B004461C
:105A30006946284600F0DBF8002829D00098A860C5
:105A4000284600F0B2F9E86800231A46866919462C
:105A50000720B04704A9284600F00AF9002817D00B
:105A6000284600F05FF9002812D0BDF81420A2806B
:105A7000BDF81600E08004984FF4007120608A425F
:105A80000ED0B2F5806F05D0B2F5006F04D00020C3
:105A900008B070BD400000E080002060A180E1807F
:105AA0000120F5E72DE9F84F1C4616468B46824645
:105AB0004FF00008204600F078F9002827D0E06871
:105AC000436A2BB1324659460020984700281ED021
:105AD00057464FF01109012E01D94FF012092078D5
